:100000000C9443000C94AC080C94AC080C94AC0811
:100010000C94AC080C94AC080C94AC080C94AC0890
:100020000C94AC080C94AC080C94AC080C94AC0880
:100030000C94AC080C94AC080C94AC080C94AC0870
:100040000C9479080C94AC080C94AC080C94AC0893
:100050000C94AC080C94AC080C94AC080C94AC0850
:100060000C94AC080C94AC08010001028001020160
:10007000420011660142014680014601480011A676
:1000800001480151800011241FBECFEFD8E0DEBF30
:10009000CDBFE8E6F0E040E017C0B591A5913591FD
:1000A0002591059107FD0CC095918591EF01F92FE0
:1000B000E82F05900D92A217B307D9F7FE0104C0EF
:1000C0001D92A217B307E1F7E538F40731F70E9454
:0A00D000D5060C948608F894FFCFC3
:1000DA00AEE0B0E0E3E7F0E00C94E2074C016B011C
:1000EA001A8219828FEF9FEF9C838B831E821D8257
:1000FA0058874F833A872987A12CB12CD6016D9056
:10010A007C90F301EA0DFB1D808181110FC0D6019D
:10011A00ED93FC938081853209F0D3C13F01BFEF93
:10012A006B1A7B0AF6017182608219C0853279F3F3
:10013A00B401082E000C990B0E9495054FEFA41AE2
:10014A00B40ADCCF8C32ACF08D32F9F489819A8111
:10015A0081609A8389833196D601ED93FC93D60107
:10016A00ED91FC9180818B3269F789819A81846053
:10017A00F0CF803221F489819A818860EACF833274
:10018A0051F489819A818061E4CF803321F4898195
:10019A009A818260DECFB701C6010E940C079E8356
:1001AA008D8397FF0BC029813A81B1E02B273A83CF
:1001BA0029839195819591099E838D8389819A815D
:1001CA0080FF03C08D7F9A838983D601ED91FC91CC
:1001DA00119780818E3249F43196ED93FC93B701E1
:1001EA00C6010E940C079C838B83C6010E94860766
:1001FA00582ED601ED91FC918081082E000C990BA6
:10020A000E94A408893609F443C084F4833609F4A9
:10021A0002C134F4853209F427C18136E1F030C1D4
:10022A008436B1F188360CF4D9C02AC1803709F472
:10023A009AC03CF48E3609F4BCC08F3609F461C00A
:10024A001FC1853709F440C0883709F476C083375F
:10025A0009F016C1F3C0652D70E0A701CE010B9617
:10026A000E940000892B09F426C1D601ED91FC9168
:10027A001197CF0101968D939C932081AE01455F22
:10028A005F4FBE016F5F7F4FC4010E94000010C123
:10029A00652D70E0970141E050E0CE010B960E9477
:1002AA006F04892B09F407C1F601808191810196B7
:1002BA0091838083AE01455F5F4FBE016F5F7F4FC1
:1002CA00C4010E94FD03F4C0652D70E0970140E06F
:1002DA0050E0CE010B960E946F04892B09F4EBC003
:1002EA00D6018D919C91119701968D939C93AE01A5
:1002FA00455F5F4FBE016F5F7F4FC4010E94E105FA
:10030A00D7C0652D70E0970140E050E0CE010B9612
:10031A000E946F04892B09F4CEC0F6018081918175
:10032A00019691838083AE01455F5F4FBE016F5F87
:10033A007F4FC4010E943C05BBC0652D70E0970148
:10034A0040E050E0CE010B960E946F04892B09F41D
:10035A00B2C0D601ED91FC911197CF0101968D9310
:10036A009C9320811CC0970140E050E060EF70E050
:10037A00CE010B960E946F04892B09F49CC0F601EA
:10038A00808191810196918380838B859C85892BBD
:10039A0029F420E030E04CE351E084C028E7AE01C4
:1003AA00455F5F4FBE016F5F7F4FC4010E946B02C2
:1003BA007FC0A501400F511F652D70E09701CE0146
:1003CA000B960E940000892B09F475C0D6018D9105
:1003DA009C91119701968D939C9373C0652D70E043
:1003EA00A701CE010B960E940000892B09F463C075
:1003FA00D601ED91FC911197CF0101968D939C93B3
:10040A002081AE01455F5F4FBE016F5F7F4FC40120
:10041A000E9400004DC0B0E85B124DC0F601808119
:10042A009181019691838083D701ED91FC91119777
:10043A00CF0102968D939C93808120C0B0E85B1215
:10044A003AC0F60180819181019691838083D70118
:10045A00ED91FC911197CF0102968D939C93408167
:10046A00518120E030E01EC0B0E85B1224C0F601E2
:10047A00208131812F5F3F4F318320838B870DC0CD
:10048A0085E28B87D6016D927C921A8219821E822E
:10049A001D828FEF9FEF9C838B8321E030E0AE01BA
:1004AA00455F5F4FBE016F5F7F4FC4010E943A07ED
:1004BA008A0D9B1D07C0F601808191810196918367
:0C04CA008083C5012E96EFE00C94FE0725
:1004D600AFE0B0E0E1E7F2E00C94DF071C016B014E
:1004E6005A8349832B83FB01828193818480958083
:1004F60000811181A680B78097FD02C00D7F02C0E2
:1005060081E090E0E981FA814080518062807380C9
:100516009801207133273D832C83740104FF08C0A2
:10052600411451046104710419F032E0E31AF10830
:10053600F801E870FF27FF83EE8303FF03C0F1E0B5
:10054600EF1AF108F6010084F185E02D3197FF8757
:10055600EE87EA0DFB1D10829C012E193F09398793
:100566002887C801827099279B878A87EB818E2FFF
:10057600EE0F990B9C01215431093D872C872E855E
:100586003F852230310530F48C819D81892B09F01D
:1005960042C05CC0411451046104710461F18E854E
:1005A6009F8501979F878E87C2018F7099278A3012
:1005B600910514F4C09602C0895A9F4FEC85FD85BB
:1005C6007A9748F49C012062215631092A31310577
:1005D60010F40E949B08EE85FF85EA0DFB1D8083C3
:1005E600F1E0EF1AF10884E0769467945794479403
:1005F6008A95D1F7C4CF888599858E0D9F1D1816CB
:1006060019066CF21E141F040CF0BECFEA85FB859A
:10061600EF2B29F6B9CFE981FA8180819181A281F8
:10062600B381892B8A2B8B2B89F0EE85FF85EA0D0A
:10063600FB1D31972B8120838E859F8502979F878F
:100646008E87FC01EA0DFB1D80E38083EE81FF812E
:10065600EF2B59F02E853F85215031093F872E8794
:10066600F901EA0DFB1D80E28083F6014085518584
:10067600415051092E853F85421B530BB9016A0D26
:100686007B1D9401C1010E9464069C01F1018081D9
:10069600918190FF06C0F6018281938182179307AC
:0C06A6000CF4C9012F96E2E10C94FB0754
:1006B2002091440130914501A9014F5F5F4F509352
:1006C20045014093440180914B01823051F128F45D
:1006D200882361F08130D1F00895843009F452C04A
:1006E20008F445C0853009F476C00895EAE7F0E0E1
:1006F200808180688083ECE7F0E080818E7F808358
:1007020080914B018F5F80934B010895EAE7F0E0FF
:1007120080818064808380914B018F5F80934B0145
:100722000895209178008091790030E0382B0024E0
:10073200220F331F001C220F331F001C232F302DCA
:10074200ADECBCEC0E945C089695879596958795D2
:100752009695879580934E01ECE7F0E08081816069
:10076200808380914B018F5F80934B010895EAE76C
:10077200F0E080818064808380914B018F5F809361
:100782004B010895209178008091790030E0382B58
:100792000024220F331F001C220F331F001C232FA3
:1007A200302DADECBCEC0E945C0896958795969531
:1007B20087959695879580934D01EAE7F0E08081D1
:1007C2008F77808381E080934C0180914B018F5F12
:1007D20080934B010895443F514038F42E5F3F4FC0
:1007E20030934501209344010895109245011092DF
:0807F200440110924B0108952F
:1007FA00A2E0B0E0E3E0F4E00C94DF073C016B0117
:10080A00FB0122813381A480B580808191819A8302
:10081A00898386809780FA012080318042805380C4
:10082A00B201A10157FE07C044275527BA01421950
:10083A0053096409750937FD03C08D7F9A8389833B
:10084A00950157FC05C0898182FD02C083FF02C061
:10085A0021503109CE0101967C010AE010E0C6015F
:10086A000E94D70457FC03C0298122FF0AC00197BE
:10087A00F401E80FF91F57FC02C02BE209C02DE270
:10088A0007C023FF06C00197F401E80FF91F20E211
:10089A00208309811A81F601408551854150510909
:1008AA00481B590BB401680F791F9501C3010E94B7
:1008BA0064069C01F3018081918190FF06C0F601D4
:1008CA0082819381821793070CF4C9012296E2E18F
:0408DA000C94FB0778
:1008DE00CF93DF93DC01F90168387105F1F05CF418
:1008EE006138710561F164387105A1F160387105E7
:1008FE0009F051C02FC0603C710509F441C0603F42
:10090E007105F1F1603A710509F045C0C081D181E0
:10091E00CE0102969183808325C0C081D181CE0104
:10092E00029691838083452B39F04881042E000C6A
:10093E00550B660B770B1CC0488150E029C0C08157
:10094E00D181CE01049691838083488159816A8139
:10095E007B810EC0C081D181CE01029691838083AE
:10096E00452BA1F048815981052E000C660B770BA3
:10097E004D935D936D937C93139781E090E00DC042
:10098E00C081D181CE0102969183808348815981A5
:10099E0060E070E0EDCF80E090E0DF91CF910895C0
:1009AE00A0E0B0E0EDEDF4E00C94E107DC012801ED
:1009BE001696AD90BC901797F70180819181129693
:1009CE00ED91FC9113971896CD91DC911997219783
:1009DE00F7FF02C0E1E0F0E0CA0DDB1D18826901ED
:1009EE00A1E0B0E08F01021B130B4C01F2E08F224D
:1009FE009924052C000C66087708CE018A199B09EC
:100A0E00CA15DB0519F1411551056105710589F00E
:100A1E00CB01BA01A30192010E946407CA01A62F5D
:100A2E00B72F605D6A9341E0C41AD108A901BC01D9
:100A3E00E4CF98012C0D3D1D121613064CF31C1419
:100A4E001D0434F48114910419F702C080E090E083
:100A5E00AB2B31F4F701208131812F7E318320833E
:0A0A6E00CDB7DEB7E0E10C94FD0700
:100A7800A2E0B0E0E2E4F5E00C94E3074C016B017E
:100A8800FB012281338164807580808191819A8302
:100A98008983A680B78037FD03C08D7F9A838983B9
:100AA800FA014081518162817381CE0101967C01F6
:100AB80008E010E09301C6010E94D704298124FFB1
:100AC80006C00197F501E80FF91F20E3208329816B
:100AD80023FF06C00197F501E80FF91F20E22083E4
:100AE80009811A81F6014085518541505109481BF9
:100AF800590BB501680F791F9301C4010E94640660
:100B08009C01F4018081918190FF06C0F6018281E9
:100B18009381821793070CF4C9012296EEE00C9496
:020B2800FF07C5
:100B2A000F931F93CF93DF93DB01109719F48FEF85
:100B3A009FEF3DC02D913C91119730FF25C016962D
:100B4A004D915C91179714962D913C9115974217E8
:100B5A00530778F41296ED91FC91139780831296BD
:100B6A002D913C9113972F5F3F4F13963C932E93F1
:100B7A00129716962D913C9117972F5F3F4F179614
:100B8A003C932E93169713C01C96ED91FC911D97DA
:100B9A00309769F2EB01092F182F0995892B39F63D
:100BAA008E819F8101969F838E83812F902FDF9163
:080BBA00CF911F910F910895E6
:100BC200A2E0B0E0E7EEF5E00C94E3075C016B0114
:100BD200FB012281338184809580808191819A8377
:100BE20089836680778037FD03C08D7F9A838983EE
:100BF200FA014081518162817381CE0101967C01AB
:100C02000AE010E09401C6010E94D70409811A810A
:100C1200F6014085518541505109481B590BB301DA
:100C2200680F791F9401C5010E9464069C01F501B9
:100C32008081918190FF06C0F601828193818217A3
:0E0C420093070CF4C9012296EEE00C94FF0714
:100C5000A2E8B0E0EEE2F6E00C94E5075C014A01A0
:100C6000CF57DF4F79836883C158D040C12CD12C36
:100C7000CF57DF4FE881F981C158D0408081882368
:100C8000E9F07401860120E830E0AE014F5F5F4F6C
:100C9000BE016F577F4FC5010E946D008C0D9D1DD9
:100CA0008C159D054CF48FE490E0909301018093A6
:100CB00000018FEF9FEF03C06C01DACFC601CE5762
:080CC000DF4FECE00C94010889
:100CC800A0E0B0E0EAE6F6E00C94E5076C015B0111
:100CD8007A01E901480181E08822992400FD03C0D6
:100CE8004217530750F0A701B501C6010E94A60795
:100CF800EC16FD0610F0C70117C08E010E191F096A
:100D08000115110541F0B60180E290E00E949505B9
:100D180001501109F5CF8114910429F4A701B501F7
:100D2800C6010E94A607CE01CDB7DEB7ECE00C9451
:020D38000108B0
:100D3A00EEE7F0E08FE38083259A2D98289AACE7B6
:100D4A00B0E080E48C938C9180628C93AAE7B0E047
:100D5A0087E08C938C9180688C9380818E7F8083CE
:100D6A0080818D7F80831092C50087E68093C400BE
:100D7A00E1ECF0E0808188608083808180618083FB
:100D8A0086E08093C20014BC83E085BD85E086BD01
:100D9A00EEE6F0E080818160808380E88FBF08956D
:100DAA00E0914601F091470188E191E091838083C7
:100DBA000E949D06C8E2D1E0809150018823E1F3A8
:100DCA00109250010E94C3070E9446080E945903CC
:100DDA0080914C01882381F310924C0180914F013C
:100DEA001F928F9380914D011F928F9380914E0194
:100DFA001F928F93DF93CF930E9416088DB79EB7E9
:0E0E0A0008960FB6F8949EBF0FBE8DBFD5CFD1
:100E1800DC01ED91FC91119780818A3221F080E00C
:100E280090E03AE00EC03196ED93FC93DB01ED9132
:100E3800FC911197CF0102968D939C9380819181AB
:100E48000895ED91FC911197208120532A3068F480
:100E5800389FA001399F500D1124CA01820F911D9E
:0C0E680031961196FC93EE93ECCF0895A8
:100E7400A0E0B0E0E0E4F7E00C94E7077C01FB01BC
:100E8400EA01C901A280B380C480D58000811181A8
:100E9400209711F4C5E3D1E0009719F4CE010E9424
:100EA4006B08B7FC04C0A816B90608F4C50196017E
:100EB400AC01BE01C7010E946406CDB7DEB7EAE00B
:040EC4000C9403087F
:100EC800A1E21A2EAA1BBB1BFD010DC0AA1FBB1F46
:100ED800EE1FFF1FA217B307E407F50720F0A21BB8
:100EE800B30BE40BF50B661F771F881F991F1A9425
:100EF80069F760957095809590959B01AC01BD014F
:040F0800CF01089578
:100F0C00CF93DF93EC0190E0E92FF0E0EE0FFF1FA1
:100F1C00EE5FFE4F8081811102C081810EC0A881DD
:100F2C00B9812C91821305C091811196B983A88344
:100F3C0001C09F5F9B3040F3892FDF91CF910895C3
:100F4C00A0E0B0E0ECEAF7E00C94E9076C01EB01EF
:100F5C008A017B01E40EF51ECE15DF0541F0899167
:100F6C00B601082E000C990B0E949505F5CFC8010F
:0A0F7C00CDB7DEB7E8E00C940508DD
:100F86008091420190914301883E23E0920730F41C
:100F96000196909343018093420105C0109243014C
:100FA600109242012D9A8091420190914301883C12
:080FB600910509F42D9808953E
:100FBE002F923F924F925F926F927F928F929F925B
:100FCE00AF92BF92CF92DF92EF92FF920F931F9349
:100FDE00CF93DF93CDB7DEB7CA1BDB0B0FB6F894FA
:080FEE00DEBF0FBECDBF099468
:100FF6002A88398848885F846E847D848C849B84A3
:10100600AA84B984C884DF80EE80FD800C811B81B0
:10101600AA81B981CE0FD11D0FB6F894DEBF0FBEDF
:06102600CDBFED010895AD
:10102C00A0E0B0E0ECE1F8E00C94EF07AE014B5F10
:10103C005F4FFA0161917191AF01E0914601F0911E
:10104C004701808191810E942E08E2E00C940B08EC
:10105C00A2E0B0E0E4E3F8E00C94ED078C015A83D5
:10106C004983AE014F5F5F4F0E942806F801208133
:10107C0024FF02C08FEF9FEF2296E4E00C94090846
:10108C0083B1817090914F01981769F080914A015A
:10109C0091E0980F90934A01883C38F083B18170AD
:0C10AC0080934F01089510924A010895AE
:1010B800A29FB001B39FC001A39F700D811D112491
:0E10C800911DB29F700D811D1124911D089580
:1010D600FC01AF014F5F5F4F2081222311F0FA011F
:0C10E600F8CF9F01281B390BC9010895A9
:1010F2008F938FB78F9386B58B5F86BD81E0809388
:0A11020050018F918FBF8F91189557
:10110C00EC010E94B1080E94B008CE010E94B20806
:06111C00CE010E94AE08A6
:10112200E0ECF0E0908195FFFDCF8093C60080E077
:0411320090E00895AC
:101136009C01215631092A31310510F48F75992702
:0211460008950A
:101148009C01215431092A31310508F4806208953F
:041158000C940000F3
:04115C000E946B0082
:021160000895F0
:021162000895EE
:021164000895EC
:1011660068076C094C836A9074A07AC0008068880E
:0611760000846C82008180
:10117C0003000000000000000000000091080000C7
:0D118C00523A25752C25752C25750D0A008D
:07119900286E756C6C290043
:0611A000286E696C2900B5
:0211A6004801FE
:00000001FF
