:100000000C9437000C94B0000C94B0000C94B00029
:100010000C94B0000C94B0000C94B0000C94B000A0
:100020000C94B0000C94B0000C94B0000C94B00090
:100030000C94B0000C94B0000C94B0000C94B00080
:100040000C948D000C94B0000C94B0000C94B00093
:100050000C94B0000C94B0000C94B0000C94B00060
:100060000C94B0000C94B000010001038000112436
:100070001FBECFEFD8E0DEBFCDBFE8E6F0E040E046
:1000800017C0B591A59135912591059107FD0CC03B
:1000900095918591EF01F92FE82F05900D92A21708
:1000A000B307D9F7FE0104C01D92A217B307E1F709
:1000B000ED36F40731F70E949A000C94A500F894ED
:0200C000FFCF70
:1000C2008091000190910101883E23E0920730F473
:1000D2000196909301018093000105C010920101E5
:1000E200109200012D9A80910001909101018436B5
:0800F200910509F42D98089511
:1000FA008FE380937E00259A2D9814BC83E085BDFA
:10010A0085E086BDEEE6F0E0808181608083089517
:10011A008F938FB78F9386B58B5F86BD81E080936F
:0A012A0002018F918FBF8F9118958D
:100134000E947D00809102018823E1F31092020164
:060144000E946100F7CFEC
:10014A00EC010E94B5000E94B400CE010E94B600E4
:06015A00CE010E94B2007C
:040160000C940000FB
:040164000E945F0096
:020168000895F8
:02016A000895F6
:02016C000895F4
:00000001FF
