:100000000C94BA000C9470030C9470030C9470035D
:100010000C9470030C9470030C9470030C94700394
:100020000C9470030C9470030C9470030C94700384
:100030000C9470030C9470030C9470030C94700374
:100040000C9445030C9470030C9470030C9470038F
:100050000C9470030C9470030C9470030C94700354
:100060000C9470030C947003F20010013B014E01DC
:1000700063018E01A201A40199029B029B029B02D3
:1000800097029B02950293029B029B029B029B029A
:100090009B029B029B029B029B029B029B029B0278
:1000A0009B029B029B029B029B029B029B029B0268
:1000B0009B029B029B029B029B029B029B029B0258
:1000C0009B029B029B029B029B029B029B029B0248
:1000D0009B029B029B029B029B029B029B029B0238
:1000E0009B029B029B029B029B029B029B029B0228
:1000F0009B029B029B029B0291029B029B029B0222
:100100008F029B028D028B029B029B029B029B0231
:100110009B029B029B029B029B029B029B029B02F7
:100120009B029B029B029B029B029B029B029B02E7
:100130009B029B029B029B0289029B029B029B02E9
:1001400087029B02850283029B029B029B029B0209
:100150009B029B029B029B0281029B029B029B02D1
:100160007F029B027D029D02010001380006EE0124
:100170003801458011241FBECFEFD8E0DEBFCDBFD0
:10018000E8E6F1E041E017C0B591A59135912591E0
:10019000059107FD0CC095918591EF01F92FE82F8E
:1001A00005900D92A217B307D9F7FE0104C01D9266
:1001B000A217B307E1F7E437F40731F70E94080309
:0801C0000C945F03F894FFCFDB
:1001C800CF93E09143018E2F90E08830910508F09D
:1001D800B8C0FC01EC5CFF4F0C946A0360E080E05F
:1001E8000E94060280E091E00E94280361E080E01E
:1001F8000E9406028AE091E00E94280361E083E001
:100208000E9406021092400110923F011092420192
:1002180081E08093430195C00E94C702882311F1B1
:1002280020913F0130914001A9014F5F5F4F5093EA
:10023800400140933F012E31310508F482C00E94ED
:100248007202C82F0E949F02E0914201F0E0E85C30
:10025800FE4FC0831092400110923F0182E08093CC
:1002680043016FC01092400110923F016AC0E091B3
:100278004201EF5FE0934201E43040F0F0E0E85CD7
:10028800FE4F108284E0809343015BC083E080933B
:10029800430157C080913F0190914001883C9105EE
:1002A80040F00E94C70281114CC081E08093430155
:1002B80048C001969093400180933F0142C061E09D
:1002C80080E00E94060268E371E083E191E00E9409
:1002D8003703811108C088E191E00E94280386E075
:1002E800809343012EC0809141018F5F809341012B
:1002F800833040F084E291E00E94280387E08093F5
:1003080043011FC08FE291E00E94280385E080939B
:10031800430117C080913F01909140019C012F5FDC
:100328003F4F3093400120933F01803D974048F074
:1003380081E00E9440021092430103C0000001C006
:060348000000CF910895B2
:10034E003D9A3C9A449845988FE59AEE0197F1F7BD
:10035E0000C0000087B18F6087B988B1807F88B9EF
:10036E0088B1836088B9459A9AE09A95F1F700C0F2
:10037E0045988FE19EE40197F1F700C0000088B127
:10038E00807F88B988B1836088B9459A9AE09A953A
:10039E00F1F700C045988FE891E00197F1F700C0A2
:1003AE00000088B1807F88B988B1836088B9459A8A
:1003BE009AE09A95F1F700C0459885ED8A95F1F788
:1003CE00000088B1807F88B9419A459A9AE09A9543
:1003DE00F1F700C0459885ED8A95F1F700008FE2A0
:1003EE000E9440028CE00E94400286E00E94400281
:0E03FE0081E00E94400282E00E9440020895C9
:10040C00613041F028F0623039F0633039F008C0C7
:10041C0090E807C090EC05C094E903C094ED01C0CE
:10042C0090E0890F449897B19F6097B998B1907FED
:10043C0098B998B1282F22952F70922B98B9459A7C
:10044C009AE09A95F1F700C0459898B1907F98B9C9
:10045C0098B18F70892B88B9459A8AE08A95F1F703
:10046C0000C0459895ED9A95F1F7000087B1807F13
:04047C0087B908959F
:10048000449897B19F6097B998B1907F98B998B107
:10049000282F22952F70922B98B9459A9AE09A9519
:1004A000F1F700C0459898B1907F98B998B1282F7E
:1004B0002F70922B98B9459A9AE09A95F1F700C05F
:1004C0004598833028F085ED8A95F1F7000006C045
:1004D0008FEF98E10197F1F700C0000087B1807FAE
:0404E00087B908953B
:1004E40090E0FC01E757F109E837F10510F5E45C09
:1004F400FF4F0C946A0383E2089580E308958AE22F
:10050400089583E4089589E3089588E3089587E3CB
:10051400089582E4089586E3089585E3089584E3C5
:10052400089581E4089583E3089582E3089581E3BF
:0A05340008958FE3089584E408950C
:10053E00449A97B19F6097B998B1907F98B998B146
:10054E00282F22952F70922B98B9459A9AE09A955A
:10055E00F1F700C0459898B1907F98B998B18F7017
:10056E00892B88B9459A8AE08A95F1F700C045989B
:10057E0095ED9A95F1F7000087B1807F87B90895C0
:10058E0085B18F6085B92898000089B1807F803F42
:10059E0071F483E09DEF25B12F6025B925B1292394
:1005AE0025B9000029B1207F203F39F001C09EEF10
:1005BE0089B1807F9F70892B0895990F9F5F81501D
:0A05CE0051F795B19F6095B90895AB
:1005D80080913D0190913E01883E23E0920730F4DE
:1005E800019690933E0180933D0105C010923E0113
:1005F80010923D012D9A80913D0190913E01883CD9
:08060800910509F42D980895F5
:100610000E9419030E9452030E94A7018091440185
:100620008823E1F3109244010E94EC020E94E4004E
:02063000F5CF04
:10063200259A2D9814BC83E085BD85E086BDEEE643
:0E064200F0E080818160808380E88FBF0895A2
:10065000CF93DF93EC018881882331F021960E94AB
:0E0660009F0289918111FBCFDF91CF91089508
:10066E00DC01FB019D912191921303C09111FACFF0
:0C067E00292F892F90E0821B910908951C
:10068A008F938FB78F9386B58B5F86BD81E08093FA
:0A069A0044018F918FBF8F911895D6
:1006A40084B18F6084B98AB18F708AB98BB1806F3D
:0A06B4008BB985B18F6085B90895F8
:1006BE00EC010E9475030E947403CE010E94760322
:0606CE00CE010E94720340
:0C06D400EE0FFF1F0590F491E02D09943B
:0406E0000C94000076
:0406E4000E94E2008E
:0206E800089573
:0206EA00089571
:0206EC0008956F
:1006EE002050415353574F52440020205B2020206E
:1006FE00205D003330323200204175746F72697A9A
:10070E0061646F0020426C6F71756561646F0020CB
:08071E00204572726F72200089
:00000001FF
