:100000000C94BA000C946F030C946F030C946F0360
:100010000C946F030C946F030C946F030C946F0398
:100020000C946F030C946F030C946F030C946F0388
:100030000C946F030C946F030C946F030C946F0378
:100040000C9444030C946F030C946F030C946F0393
:100050000C946F030C946F030C946F030C946F0358
:100060000C946F030C946F03F200100137014A01E6
:1000700052017D019101930188028A028A028A025B
:1000800086028A02840282028A028A028A028A0222
:100090008A028A028A028A028A028A028A028A0200
:1000A0008A028A028A028A028A028A028A028A02F0
:1000B0008A028A028A028A028A028A028A028A02E0
:1000C0008A028A028A028A028A028A028A028A02D0
:1000D0008A028A028A028A028A028A028A028A02C0
:1000E0008A028A028A028A028A028A028A028A02B0
:1000F0008A028A028A028A0280028A028A028A02AA
:100100007E028A027C027A028A028A028A028A02B9
:100110008A028A028A028A028A028A028A028A027F
:100120008A028A028A028A028A028A028A028A026F
:100130008A028A028A028A0278028A028A028A0271
:1001400076028A02740272028A028A028A028A0291
:100150008A028A028A028A0270028A028A028A0259
:100160006E028A026C028C02010001380006EC016A
:100170003801458011241FBECFEFD8E0DEBFCDBFD0
:10018000E8E6F1E041E017C0B591A59135912591E0
:10019000059107FD0CC095918591EF01F92FE82F8E
:1001A00005900D92A217B307D9F7FE0104C01D9266
:1001B000A217B307E1F7E437F40731F70E941603FB
:0801C0000C945E03F894FFCFDC
:1001C800CF93E09143018E2F90E08830910508F09D
:1001D800A7C0FC01EC5CFF4F0C94690360E080E071
:1001E8000E94F50180E091E00E94270361E080E031
:1001F8000E94F5018AE091E00E94270361E083E014
:100208000E94F5011092400110923F0110924201A4
:1002180081E08093430184C00E94B6028823F1F0F4
:1002280020913F0130914001A9014F5F5F4F5093EA
:10023800400140933F012436310508F471C00E9403
:100248006102C82F0E948E02E0914201F0E0E85C52
:10025800FE4FC08382E08093430162C01092400148
:1002680010923F015DC0E0914201EF5FE0934201CF
:10027800E43040F0F0E0E85CFE4F108284E08093C8
:1002880043014EC083E0809343014AC00E94B602F6
:10029800811146C081E08093430142C061E080E063
:1002A8000E94F50168E371E083E191E00E94360362
:1002B800811108C088E191E00E94270386E08093BD
:1002C80043012EC0809141018F5F809341018330AB
:1002D80040F084E291E00E94270387E08093430185
:1002E8001FC08FE291E00E94270385E080934301BD
:1002F80017C080913F01909140019C012F5F3F4FB3
:100308003093400120933F01803D974048F081E0C1
:100318000E942F021092430103C0000001C0000098
:04032800CF910895D4
:10032C003D9A3C9A449845988FE59AEE0197F1F7DF
:10033C0000C0000087B18F6087B988B1807F88B911
:10034C0088B1836088B9459A9AE09A95F1F700C014
:10035C0045988FE19EE40197F1F700C0000088B149
:10036C00807F88B988B1836088B9459A9AE09A955C
:10037C00F1F700C045988FE891E00197F1F700C0C4
:10038C00000088B1807F88B988B1836088B9459AAC
:10039C009AE09A95F1F700C0459885ED8A95F1F7AA
:1003AC00000088B1807F88B9419A459A9AE09A9565
:1003BC00F1F700C0459885ED8A95F1F700008FE2C2
:1003CC000E942F028CE00E942F0286E00E942F02D6
:0E03DC0081E00E942F0282E00E942F0208950D
:1003EA00613041F028F0623039F0633039F008C0EA
:1003FA0090E807C090EC05C094E903C094ED01C0F1
:10040A0090E0890F449897B19F6097B998B1907F0F
:10041A0098B998B1282F22952F70922B98B9459A9E
:10042A009AE09A95F1F700C0459898B1907F98B9EB
:10043A0098B18F70892B88B9459A8AE08A95F1F725
:10044A0000C0459895ED9A95F1F7000087B1807F35
:04045A0087B90895C1
:10045E00449897B19F6097B998B1907F98B998B129
:10046E00282F22952F70922B98B9459A9AE09A953B
:10047E00F1F700C0459898B1907F98B998B1282FA0
:10048E002F70922B98B9459A9AE09A95F1F700C081
:10049E004598833028F085ED8A95F1F7000006C067
:1004AE008FEF98E10197F1F700C0000087B1807FD0
:0404BE0087B908955D
:1004C20090E0FC01E757F109E837F10510F5E45C2B
:1004D200FF4F0C94690383E2089580E308958AE252
:1004E200089583E4089589E3089588E3089587E3EE
:1004F200089582E4089586E3089585E3089584E3E8
:10050200089581E4089583E3089582E3089581E3E1
:0A05120008958FE3089584E408952E
:10051C00449A97B19F6097B998B1907F98B998B168
:10052C00282F22952F70922B98B9459A9AE09A957C
:10053C00F1F700C0459898B1907F98B998B18F7039
:10054C00892B88B9459A8AE08A95F1F700C04598BD
:10055C0095ED9A95F1F7000087B1807F87B90895E2
:10056C0085B18F6085B92898000089B1807F803F64
:10057C0071F483E09DEF25B12F6025B925B12923B6
:10058C0025B9000029B1207F203F39F001C09EEF32
:10059C0089B1807F9F70892B0895990F9F5F81503F
:0A05AC0051F795B19F6095B90895CD
:1005B600259A2D981092C50087E68093C400E1EC39
:1005C600F0E080818860808380818061808386E01E
:1005D6008093C20014BC83E085BD85E086BDEEE64F
:0E05E600F0E080818160808380E88FBF0895FF
:1005F40080913D0190913E01883E23E0920730F4C2
:10060400019690933E0180933D0105C010923E01F6
:1006140010923D012D9A80913D0190913E01883CBC
:08062400910509F42D980895D9
:10062C000E94DB020E9451030E94960180914401BA
:10063C008823E1F3109244010E94FA020E94E40024
:02064C00F5CFE8
:10064E00CF93DF93EC018881882331F021960E94AD
:0E065E008E0289918111FBCFDF91CF9108951B
:10066C00DC01FB019D912191921303C09111FACFF2
:0C067C00292F892F90E0821B910908951E
:100688008F938FB78F9386B58B5F86BD81E08093FC
:0A06980044018F918FBF8F911895D8
:1006A20084B18F6084B98AB18F708AB98BB1806F3F
:0A06B2008BB985B18F6085B90895FA
:1006BC00EC010E9474030E947303CE010E94750327
:0606CC00CE010E94710343
:0C06D200EE0FFF1F0590F491E02D09943D
:0406DE000C94000078
:0406E2000E94E20090
:0206E600089575
:0206E800089573
:0206EA00089571
:1006EC002050415353574F52440020205B20202070
:1006FC00205D003330323200204175746F72697A9C
:10070C0061646F0020426C6F71756561646F0020CD
:08071C00204572726F7220008B
:00000001FF
