:100000000C9437000C94D1000C94D1000C94D100C6
:100010000C94D1000C94D1000C94D1000C94D1001C
:100020000C94D1000C94D1000C94D1000C94D1000C
:100030000C94D1000C94D1000C94D1000C94D100FC
:100040000C94AC000C94D1000C94D1000C94D10011
:100050000C94D1000C94D1000C94D1000C94D100DC
:100060000C94D1000C94D1000100010580001124F2
:100070001FBECFEFD8E0DEBFCDBFE8E6F0E040E046
:1000800017C0B591A59135912591059107FD0CC03B
:1000900095918591EF01F92FE82F05900D92A21708
:1000A000B307D9F7FE0104C01D92A217B307E1F709
:1000B000ED36F40731F70E94B9000C94C600F894AD
:0200C000FFCF70
:1000C2008091020190910301883E23E0920730F46F
:1000D2000196909303018093020105C010920301DF
:1000E200109202012D9A8091020190910301883CA5
:0800F200910509F42D98089511
:1000FA008091000190910101883C910530F40196AC
:10010A00909301018093000105C0109201011092A1
:10011A0000015A9A8091000190910101843691055B
:06012A0009F45A98089543
:100130008FE380937E00259A529A2D985A9814BC8A
:1001400083E085BD85E086BDEEE6F0E080818160DC
:08015000808380E88FBF089551
:100158008F938FB78F9386B58B5F86BD81E0809331
:0A01680004018F918FBF8F9118954D
:100172000E949800809104018823E1F31092040107
:0A0182000E9461000E947D00F5CF8D
:10018C00EC010E94D6000E94D500CE010E94D7003F
:06019C00CE010E94D30019
:0401A2000C940000B9
:0401A6000E945F0054
:0201AA000895B6
:0201AC000895B4
:0201AE000895B2
:00000001FF
