:100000000C9437000C9468010C9468010C946801FE
:100010000C9468010C9468010C9468010C946801BC
:100020000C9468010C9468010C9468010C946801AC
:100030000C9468010C9468010C9468010C9468019C
:100040000C9450010C9468010C9468010C946801A4
:100050000C9468010C9468010C9468010C9468017C
:100060000C9468010C9468010100010B80001124BC
:100070001FBECFEFD8E0DEBFCDBFE8E6F0E040E046
:1000800017C0B591A59135912591059107FD0CC03B
:1000900095918591EF01F92FE82F05900D92A21708
:1000A000B307D9F7FE0104C01D92A217B307E1F709
:1000B000ED36F40731F70E943A010C945D01F89493
:0200C000FFCF70
:1000C200809104019091050101969093050180931E
:1000D2000401809108018130D1F028F0823051F181
:1000E2008330D9F1089584E88BB98091040190910D
:1000F20005018031974208F43FC010920501109229
:100102000401809108018F5F80930801089588E8B7
:100112008BB98091040190910501883B9B4060F16D
:100122001092050110920401809108018F5F809363
:100132000801089580E38BB9809104019091050133
:1001420080319742C8F0109205011092040180910B
:1001520008018F5F80930801089580E58BB9809133
:10016200040190910501883B9B4030F010920501FB
:0A0172001092040110920801089594
:10017C008091020190910301019690930301809369
:10018C00020180910701882319F0813099F00895BC
:10019C001BB88091020190910301843F9140C8F0FB
:1001AC001092030110920201809107018F5F8093DE
:1001BC000701089588E48BB98091020190910301A5
:1001CC00843F914030F01092030110920201109282
:0401DC00070108957A
:1001E0008091000190910101883E23E0920730F454
:1001F0000196909301018093000105C010920101C6
:10020000109200012D9A8091000190910101883C8B
:08021000910509F42D980895F1
:100218008FE380937E00259A289A8AB18C6F8AB9D9
:100228002D9888E48BB914BC83E085BD85E086BD34
:10023800EEE6F0E080818160808380E88FBF0895DA
:1002480083B1817090910901981769F08091060136
:1002580091E0980F90930601883C38F083B1817043
:0C0268008093090108951092060108958A
:100274000E940C0180910A018823E1F310920A0183
:100284000E94F0000E94240180910901882319F042
:0C0294000E946100EFCF0E94BE00ECCF82
:1002A0008F938FB78F9386B58B5F86BD81E08093E8
:0A02B0000A018F918FBF8F911895FE
:1002BA00EC010E946D010E946C01CE010E946E0148
:0602CA00CE010E946A0152
:0402D0000C9400008A
:0402D4000E945F0025
:0202D800089587
:0202DA00089585
:0202DC00089583
:00000001FF
