:100000000C944F000C9490080C9490080C94900859
:100010000C9490080C9490080C9490080C9444074D
:100020000C9490080C9490080C9490080C949008F0
:100030000C9490080C9490080C9490080C949008E0
:100040000C945A080C9490080C9490080C94900806
:100050000C9490080C9490080C9490080C949008C0
:100060000C9490080C949008010001028001020198
:100070002800112E01280130800130014400115464
:1000800001440148800148014A001168014A0150B9
:10009000800150015100116A015101528000112468
:1000A0001FBECFEFD8E0DEBFCDBFE8E6F0E040E016
:1000B00017C0B591A59135912591059107FD0CC00B
:1000C00095918591EF01F92FE82F05900D92A217D8
:1000D000B307D9F7FE0104C01D92A217B307E1F7D9
:1000E000ED39F40731F70E94DA050C946708F894AB
:0200F000FFCF40
:1000F200AEE0B0E0EFE7F0E00C94E8074C016B01F2
:100102001A8219828FEF9FEF9C838B831E821D823E
:1001120058874F833A872987A12CB12CD6016D903D
:100122007C90F301EA0DFB1D808181110FC0D60185
:10013200ED93FC938081853209F0D3C13F01BFEF7B
:100142006B1A7B0AF6017182608219C0853279F3DB
:10015200B401082E000C990B0E94FD044FEFA41A63
:10016200B40ADCCF8C32ACF08D32F9F489819A81F9
:1001720081609A8389833196D601ED93FC93D601EF
:10018200ED91FC9180818B3269F789819A8184603B
:10019200F0CF803221F489819A818860EACF83325C
:1001A20051F489819A818061E4CF803321F489817D
:1001B2009A818260DECFB701C6010E94C1069E838A
:1001C2008D8397FF0BC029813A81B1E02B273A83B7
:1001D20029839195819591099E838D8389819A8145
:1001E20080FF03C08D7F9A838983D601ED91FC91B4
:1001F200119780818E3249F43196ED93FC93B701C9
:10020200C6010E94C1069C838B83C6010E948C0793
:10021200582ED601ED91FC918081082E000C990B8D
:100222000E948508893609F443C084F4833609F4B0
:1002320002C134F4853209F427C18136E1F030C1BC
:100242008436B1F188360CF4D9C02AC1803709F45A
:100252009AC03CF48E3609F4BCC08F3609F461C0F2
:100262001FC1853709F440C0883709F476C0833747
:1002720009F016C1F3C0652D70E0A701CE010B96FF
:100282000E940000892B09F426C1D601ED91FC9150
:100292001197CF0101968D939C932081AE01455F0A
:1002A2005F4FBE016F5F7F4FC4010E94000010C10B
:1002B200652D70E0970141E050E0CE010B960E945F
:1002C200D703892B09F407C1F60180819181019638
:1002D20091838083AE01455F5F4FBE016F5F7F4FA9
:1002E200C4010E946503F4C0652D70E0970140E0EF
:1002F20050E0CE010B960E94D703892B09F4EBC084
:10030200D6018D919C91119701968D939C93AE018C
:10031200455F5F4FBE016F5F7F4FC4010E9493052F
:10032200D7C0652D70E0970140E050E0CE010B96FA
:100332000E94D703892B09F4CEC0F60180819181F6
:10034200019691838083AE01455F5F4FBE016F5F6F
:100352007F4FC4010E94A404BBC0652D70E09701C9
:1003620040E050E0CE010B960E94D703892B09F49E
:10037200B2C0D601ED91FC911197CF0101968D93F8
:100382009C9320811CC0970140E050E060EF70E038
:10039200CE010B960E94D703892B09F49CC0F6016B
:1003A200808191810196918380838B859C85892BA5
:1003B20029F420E030E04EE351E084C028E7AE01AA
:1003C200455F5F4FBE016F5F7F4FC4010E9477029E
:1003D2007FC0A501400F511F652D70E09701CE012E
:1003E2000B960E940000892B09F475C0D6018D91ED
:1003F2009C91119701968D939C9373C0652D70E02B
:10040200A701CE010B960E940000892B09F463C05C
:10041200D601ED91FC911197CF0101968D939C939A
:100422002081AE01455F5F4FBE016F5F7F4FC40108
:100432000E9400004DC0B0E85B124DC0F601808101
:100442009181019691838083D701ED91FC9111975F
:10045200CF0102968D939C93808120C0B0E85B12FD
:100462003AC0F60180819181019691838083D70100
:10047200ED91FC911197CF0102968D939C9340814F
:10048200518120E030E01EC0B0E85B1224C0F601CA
:10049200208131812F5F3F4F318320838B870DC0B5
:1004A20085E28B87D6016D927C921A8219821E8216
:1004B2001D828FEF9FEF9C838B8321E030E0AE01A2
:1004C200455F5F4FBE016F5F7F4FC4010E941A07F5
:1004D2008A0D9B1D07C0F60180819181019691834F
:0C04E2008083C5012E96EFE00C94040806
:1004EE00AFE0B0E0EDE7F2E00C94E5071C016B0124
:1004FE005A8349832B83FB0182819381848095806B
:10050E0000811181A680B78097FD02C00D7F02C0C9
:10051E0081E090E0E981FA814080518062807380B1
:10052E009801207133273D832C83740104FF08C08A
:10053E00411451046104710419F032E0E31AF10818
:10054E00F801E870FF27FF83EE8303FF03C0F1E09D
:10055E00EF1AF108F6010084F185E02D3197FF873F
:10056E00EE87EA0DFB1D10829C012E193F0939877B
:10057E002887C801827099279B878A87EB818E2FE7
:10058E00EE0F990B9C01215431093D872C872E8546
:10059E003F852230310530F48C819D81892B09F005
:1005AE0042C05CC0411451046104710461F18E8536
:1005BE009F8501979F878E87C2018F7099278A30FA
:1005CE00910514F4C09602C0895A9F4FEC85FD85A3
:1005DE007A9748F49C012062215631092A3131055F
:1005EE0010F40E947C08EE85FF85EA0DFB1D8083CA
:1005FE00F1E0EF1AF10884E07694679457944794EB
:10060E008A95D1F7C4CF888599858E0D9F1D1816B2
:10061E0019066CF21E141F040CF0BECFEA85FB8582
:10062E00EF2B29F6B9CFE981FA8180819181A281E0
:10063E00B381892B8A2B8B2B89F0EE85FF85EA0DF2
:10064E00FB1D31972B8120838E859F8502979F8777
:10065E008E87FC01EA0DFB1D80E38083EE81FF8116
:10066E00EF2B59F02E853F85215031093F872E877C
:10067E00F901EA0DFB1D80E28083F601408551856C
:10068E00415051092E853F85421B530BB9016A0D0E
:10069E007B1D9401C1010E9457069C01F1018081CE
:1006AE00918190FF06C0F601828193818217930794
:0C06BE000CF4C9012F96E2E10C94010835
:1006CA00A2E0B0E0EBE6F3E00C94E5073C016B0135
:1006DA00FB0122813381A480B580808191819A8334
:1006EA00898386809780FA012080318042805380F6
:1006FA00B201A10157FE07C044275527BA01421982
:10070A0053096409750937FD03C08D7F9A8389836C
:10071A00950157FC05C0898182FD02C083FF02C092
:10072A0021503109CE0101967C010AE010E0C60190
:10073A000E943F0457FC03C0298122FF0AC0019787
:10074A00F401E80FF91F57FC02C02BE209C02DE2A1
:10075A0007C023FF06C00197F401E80FF91F20E242
:10076A00208309811A81F60140855185415051093A
:10077A00481B590BB401680F791F9501C3010E94E8
:10078A0057069C01F3018081918190FF06C0F60112
:10079A0082819381821793070CF4C9012296E2E1C0
:0407AA000C940108A2
:1007AE00CF93DF93DC01F90168387105F1F05CF449
:1007BE006138710561F164387105A1F16038710518
:1007CE0009F051C02FC0603C710509F441C0603F73
:1007DE007105F1F1603A710509F045C0C081D18112
:1007EE00CE0102969183808325C0C081D181CE0136
:1007FE00029691838083452B39F04881042E000C9C
:10080E00550B660B770B1CC0488150E029C0C08188
:10081E00D181CE01049691838083488159816A816A
:10082E007B810EC0C081D181CE01029691838083DF
:10083E00452BA1F048815981052E000C660B770BD4
:10084E004D935D936D937C93139781E090E00DC073
:10085E00C081D181CE0102969183808348815981D6
:10086E0060E070E0EDCF80E090E0DF91CF910895F1
:10087E00A0E0B0E0E5E4F4E00C94E707DC01280129
:10088E001696AD90BC901797F701808191811296C4
:10089E00ED91FC9113971896CD91DC9119972197B4
:1008AE00F7FF02C0E1E0F0E0CA0DDB1D188269011E
:1008BE00A1E0B0E08F01021B130B4C01F2E08F227E
:1008CE009924052C000C66087708CE018A199B091D
:1008DE00CA15DB0519F1411551056105710589F040
:1008EE00CB01BA01A30192010E946A07CA01A62F89
:1008FE00B72F605D6A9341E0C41AD108A901BC010B
:10090E00E4CF98012C0D3D1D121613064CF31C144A
:10091E001D0434F48114910419F702C080E090E0B4
:10092E00AB2B31F4F701208131812F7E318320836F
:0A093E00CDB7DEB7E0E10C9403082A
:10094800A2E0B0E0EAEAF4E00C94E9074C016B019C
:10095800FB012281338164807580808191819A8333
:100968008983A680B78037FD03C08D7F9A838983EA
:10097800FA014081518162817381CE0101967C0127
:1009880008E010E09301C6010E943F04298124FF7A
:1009980006C00197F501E80FF91F20E3208329819C
:1009A80023FF06C00197F501E80FF91F20E2208315
:1009B80009811A81F6014085518541505109481B2A
:1009C800590BB501680F791F9301C4010E9457069E
:1009D8009C01F4018081918190FF06C0F60182811B
:1009E8009381821793070CF4C9012296EEE00C94C8
:0209F8000508F0
:1009FA000F931F93CF93DF93DB01109719F48FEFB7
:100A0A009FEF3DC02D913C91119730FF25C016965E
:100A1A004D915C91179714962D913C911597421719
:100A2A00530778F41296ED91FC91139780831296EE
:100A3A002D913C9113972F5F3F4F13963C932E9322
:100A4A00129716962D913C9117972F5F3F4F179645
:100A5A003C932E93169713C01C96ED91FC911D970B
:100A6A00309769F2EB01092F182F0995892B39F66E
:100A7A008E819F8101969F838E83812F902FDF9194
:080A8A00CF911F910F91089517
:100A920080914C01813091F028F08230B9F083309E
:100AA20081F10895299A25E32A95F1F70000299802
:100AB20080914C018F5F80934C0108951092470101
:100AC2001092460182E080934C0108958091460184
:100AD200909147019C012F5F3F4F30934701209334
:100AE2004601849718F083E080934C01189919C04D
:100AF20020934E0181E080934D0183E080934C016D
:100B0200089580914601909147019C012F5F3F4FCC
:100B12003093470120934601883E934010F0109293
:040B22004C010895E5
:100B2600A2E0B0E0E9E9F5E00C94E9075C016B01AD
:100B3600FB012281338184809580808191819A8313
:100B460089836680778037FD03C08D7F9A8389838A
:100B5600FA014081518162817381CE0101967C0147
:100B66000AE010E09401C6010E943F0409811A813F
:100B7600F6014085518541505109481B590BB30177
:100B8600680F791F9401C5010E9457069C01F50163
:100B96008081918190FF06C0F60182819381821740
:0E0BA60093070CF4C9012296EEE00C940508AA
:100BB400E0914801F091490188E191E091838083BB
:100BC4000E94EF060E948D088CE380932801C0E305
:100BD400D1E008E211E00F2EFAE5EF2EF02D0F2EF2
:100BE400FEE1FF2EF02D80914F018823E1F3109256
:100BF4004F010E94C9070E94490580914D01882335
:100C040091F310924D0180914E011F928F93DF93C7
:100C1400CF930E941C080F900F900F900F9080911B
:100C24004E01833018F4F801F082DDCFF801E08240
:020C3400DACF15
:100C3600A2E8B0E0E1E2F6E00C94EB075C014A01C1
:100C4600CF57DF4F79836883C158D040C12CD12C50
:100C5600CF57DF4FE881F981C158D0408081882382
:100C6600E9F07401860120E830E0AE014F5F5F4F86
:100C7600BE016F577F4FC5010E9479008C0D9D1DE7
:100C86008C159D054CF48FE490E0909301018093C0
:100C960000018FEF9FEF03C06C01DACFC601CE577C
:080CA600DF4FECE00C9407089D
:100CAE00A0E0B0E0EDE5F6E00C94EB076C015B0123
:100CBE007A01E901480181E08822992400FD03C0F0
:100CCE004217530750F0A701B501C6010E94AC07A9
:100CDE00EC16FD0610F0C70117C08E010E191F0984
:100CEE000115110541F0B60180E290E00E94FD046D
:100CFE0001501109F5CF8114910429F4A701B50112
:100D0E00C6010E94AC07CE01CDB7DEB7ECE00C9465
:020D1E000708C4
:100D200080915101882371F08F5F8A3021F0809388
:100D300051018AEF08951092510181E08093500192
:100D40008AEF08959091500188B1892399F088B174
:100D50009095982398B9909128018DE7891B9091DF
:100D600051019F5F9093510190915001990F909381
:100D70005001089588B1982B98B980912801835823
:020D80000895D4
:100D8200DC01ED91FC91119780818A3221F080E0A3
:100D920090E03AE00EC03196ED93FC93DB01ED91C9
:100DA200FC911197CF0102968D939C938081918142
:100DB2000895ED91FC911197208120532A3068F417
:100DC200389FA001399F500D1124CA01820F911D35
:0C0DD20031961196FC93EE93ECCF08953F
:100DDE00259A2D98219A289A1092C50087E680931D
:100DEE00C400E1ECF0E080818860808386E080932F
:100DFE00C20014BC83E085BD95E096BDEEE6F0E042
:100E0E0080818160808382E08093B0009093B100F6
:100E1E008DE78093B300E0E7F0E08081826080830D
:060E2E0080E88FBF08956B
:100E3400A0E0B0E0E0E2F7E00C94ED077C01FB01F8
:100E4400EA01C901A280B380C480D58000811181E8
:100E5400209711F4C7E3D1E0009719F4CE010E9462
:100E64004C08B7FC04C0A816B90608F4C5019601DD
:100E7400AC01BE01C7010E945706CDB7DEB7EAE058
:040E84000C940908B9
:100E88001F920F920FB60F9211242F933F934F93F7
:100E98005F936F937F938F939F93AF93BF93EF93DA
:100EA800FF930E9490068093B300FF91EF91BF914A
:100EB800AF919F918F917F916F915F914F913F91EA
:0C0EC8002F910F900FBE0F901F901895F7
:100ED400A1E21A2EAA1BBB1BFD010DC0AA1FBB1F3A
:100EE400EE1FFF1FA217B307E407F50720F0A21BAC
:100EF400B30BE40BF50B661F771F881F991F1A9419
:100F040069F760957095809590959B01AC01BD0142
:040F1400CF0108956C
:100F1800CF93DF93EC0190E0E92FF0E0EE0FFF1F95
:100F2800EE5FFE4F8081811102C081810EC0A881D1
:100F3800B9812C91821305C091811196B983A88338
:100F480001C09F5F9B3040F3892FDF91CF910895B7
:100F5800A0E0B0E0E2EBF7E00C94EF076C01EB01E6
:100F68008A017B01E40EF51ECE15DF0541F089915B
:100F7800B601082E000C990B0E94FD04F5CFC8019C
:0A0F8800CDB7DEB7E8E00C940B08CB
:100F92008091440190914501883E23E0920730F40C
:100FA2000196909345018093440105C0109245013A
:100FB200109244012D9A8091440190914501843F01
:080FC200914009F42D980895F7
:100FCA002F923F924F925F926F927F928F929F924F
:100FDA00AF92BF92CF92DF92EF92FF920F931F933D
:100FEA00CF93DF93CDB7DEB7CA1BDB0B0FB6F894EE
:080FFA00DEBF0FBECDBF09945C
:101002002A88398848885F846E847D848C849B8496
:10101200AA84B984C884DF80EE80FD800C811B81A4
:10102200AA81B981CE0FD11D0FB6F894DEBF0FBED3
:06103200CDBFED010895A1
:10103800A0E0B0E0E2E2F8E00C94F507AE014B5F07
:101048005F4FFA0161917191AF01E0914801F09110
:101058004901808191810E943408E2E00C941108D2
:10106800A2E0B0E0EAE3F8E00C94F3078C015A83BD
:101078004983AE014F5F5F4F0E941B06F801208134
:1010880024FF02C08FEF9FEF2296E4E00C940F0834
:10109800FC01AF014F5F5F4F2081222311F0FA015D
:0C10A800F8CF9F01281B390BC9010895E7
:1010B4008F938FB78F9386B58B5F86BD81E08093C6
:0A10C4004F018F918FBF8F91189597
:1010CE00EC010E9495080E949408CE010E94960899
:0610DE00CE010E94920801
:1010E400E0ECF0E0908195FFFDCF8093C60080E0B6
:0410F40090E00895EB
:1010F8009C01215631092A31310510F48F75992741
:02110800089548
:10110A009C01215431092A31310508F4806208957D
:06111A00389A4098089588
:041120000C9400002B
:041124000E947700AE
:02112800089528
:02112A00089526
:02112C00089524
:10112E0068076C094C836A9074A07AC00080688846
:06113E0000846C820081B8
:10114400030000000000000000000000720800001E
:07115400523A25750D0A0057
:07115B00286E756C6C290081
:06116200286E696C2900F3
:021168004A013A
:01116A000183
:00000001FF
